:020000040800F2
:1000000058050020450100088D13000865120008FE
:1000100089130008F70900088B1900080000000088
:10002000000000000000000000000000691500084A
:10003000290E000800000000391400087D16000891
:100040005F0100085F0100085F0100085F01000810
:100050005F0100085F0100085F0100085F01000800
:100060005F0100085F0100085F0100085F010008F0
:100070005F0100085F0100085F0100085F010008E0
:100080005F0100085F0100085F0100085F010008D0
:100090005F0100085F0100085F0100085F010008C0
:1000A0005F0100085F0100085F0100085F010008B0
:1000B0005F0100085F0100085F0100085F010008A0
:1000C0005F0100085F0100085F0100085F01000890
:1000D0005F010008E11600085F0100085F010008E9
:1000E0005F0100085F0100085F0100085F01000870
:1000F0005F0100085F0100085F0100085F01000860
:100100005F0100085F0100085F0100085F0100084F
:100110005F0100085F0100085F0100085F0100083F
:100120005F0100085F0100085F0100085F0100082F
:10013000DFF80CD000F038FB004800472525000808
:10014000580500200648804706480047FEE7FEE7BE
:10015000FEE7FEE7FEE7FEE7FEE7FEE7FEE7FEE777
:100160008116000831010008D2B201E000F8012B2D
:10017000491EFBD270470022F6E710B513460A4627
:1001800004461946FFF7F0FF204610BD10B50022C7
:1001900000E0521C835C8C5CA34201D1002BF8D19F
:1001A000D8B2E1B2401A10BD2DE9FE4F81EA030436
:1001B00004F0004421F0004100944FF0000B23F0C4
:1001C000004350EA01045ED052EA03045BD0C3F35B
:1001D0000A54C1F30A552C44A4F2F3340194A0FB51
:1001E0000254C1F3130141F48011C3F3130343F428
:1001F000801301FB024400FB034E840A970A44EA81
:10020000815447EA8357A4FB076802958D0A05FBD2
:1002100007854FEA932C04FB0C542705029D4FEAF7
:10022000065847EA1637B5EB08056EEB070C870E44
:10023000920E47EA811742EA8312A7FB0201B6EB4E
:100240000B0164EB00042B0D43EA0C335E1844EB06
:100250001C50DA465146E7FB0201C5F313044FEA8E
:100260000B3343EA14534FEA0432019C43EA06037A
:10027000A4F10C040294009CCDE900B400F017F93D
:1002800003B0BDE8F08F00200146F9E7C10F80EA16
:10029000E0700844CA079623002100F0CBB89623EB
:1002A0000022114600F0C6B870B5C1F30A5201F041
:1002B00000450024C1F3130140F2FF3341F48011E3
:1002C0009A4201DA002070BD40F233439A42A2F212
:1002D000334203DC524200F094F800E090402C439B
:1002E000F1D0404270BD00F0004230F000400AD032
:1002F000C10D01F56071C0F3160042EA0151C20858
:1003000040071143704700200146704730B5041E76
:1003100071F1000404DB4FF00044404264EB010142
:10032000141E73F1000405DB1C464FF000435242DB
:1003300063EB0403994208BF904230BD01F00043D3
:1003400030B421F0004150EA010206D00A0DA2F5B6
:100350006072C1F31301002A02DC30BC0020704738
:10036000440F44EAC104C100E01830BC00EBC250A5
:1003700000F057B830B50B4601460020202201247A
:1003800009E021FA02F59D4205D303FA02F5491B63
:1003900004FA02F52844151EA2F10102F1DC30BD79
:1003A0002DE9F05F0546002092469B4688460646AA
:1003B000814640241BE0284641464746224600F03D
:1003C00020F853465A46C01A914110D31146184698
:1003D000224600F0FBF92D1A67EB01084F46224632
:1003E0000120002100F0F2F917EB00094E41201E18
:1003F000A4F10104DFDC484631462A464346BDE805
:10040000F09F202A04DB203A21FA02F000217047F5
:1004100021FA02F3D040C2F120029140084319466C
:1004200070470029A8BF7047401C490008BF20F052
:100430000100704710B4B0FA80FC00FA0CF050EAEA
:10044000010404BF10BC704749B1CCF1200421FA6B
:1004500004F411FA0CF118BF012121430843A3EB66
:100460000C01CB1D4FEA00614FEA102042BF002073
:1004700010BC704700EBC35010440029A4BF10BC4F
:100480007047401C490008BF20F0010010BC7047B5
:1004900010B5141E73F1000408DA401C41F100018C
:1004A00092185B411A4301D120F0010010BD2DE9E3
:1004B000F04D92469B4611B1B1FA81F202E0B0FADA
:1004C00080F22032904600F081F904460F4640EA5F
:1004D0000A0041EA0B0153465A46084313D011461D
:1004E00053EA010019D0C8F140025046FFF789FFD6
:1004F00005460E4650465946424600F067F9084305
:1005000005D0012004E020463946BDE8F08D0020EA
:10051000054346EAE0762C4337430A986305E40A2C
:10052000A0EB08000022FD0A44EA47540A3002D535
:1005300000200146E9E7010510196941DDE9084598
:1005400000196941BDE8F04DA2E72DE9FE4F804654
:1005500081EA0300C00F0C46009021F0004123F017
:100560000045B8EB0200A94105D24046214690461D
:100570001C460B46024623F00040104347D0270D8F
:10058000C7F30A00C3F30A510290401A01904028B1
:100590006BDAC3F3130040F4801B0098924620B13D
:1005A0000023D2EB030A63EB0B0B01985946C0F111
:1005B0004002504600F00AF906460D46504659469C
:1005C000019A00F012F910EB08006141002487EA5B
:1005D000115284EAE7731A4340D0009A62B3019A39
:1005E000012A4FEA075215DC001B61EB02014FF0B4
:1005F000004202EA0752CDE90042001C41F5801199
:1006000032462B46FFF753FF03B0BDE8F08F40465C
:100610002146F9E7001B61EB0201001C41F5801344
:1006200000185B412018A2F5001747EB030140EAD0
:10063000D570B6196D4111E06D084FEA360645EAEE
:10064000C0754FEA0752001B61EB0201001C41F527
:10065000801149084FEA30000019514132462B46BB
:1006600003B0BDE8F04FFFF713BF00980122400030
:100670000023D0EB020263EBE073009821464FEABF
:10068000E074B8EB000061EB0401E9E783F000439C
:100690005BE781F0004158E72DE9F04D81EA030462
:1006A00004F0004B21F0004514464FF0000A23F0FF
:1006B000004150EA050220D054EA01021DD0C5F3E2
:1006C0000A570246C5F31303C1F31300C1F30A56D8
:1006D00040F4801543F48013A7EB0608101BD646A0
:1006E00008F2FD3873EB050002D308F1010801E0C0
:1006F00092185B41B8F1000F03DA00200146BDE813
:10070000F08D00204FF48011064684460EE0171B42
:1007100073EB050705D3121B63EB050306434CEA95
:10072000010C49084FEA300092185B4150EA01077A
:10073000EDD152EA030012D082EA040083EA0501F7
:10074000084305D0101BAB4106D20122002306E06E
:1007500000224FF0004302E06FF0010253101AEB49
:1007600006004CEB085110EB0A0041EB0B01BDE811
:10077000F04DFFF78DBEC1F30A52C1F3130140F2F1
:10078000FF3341F480119A4202DA0020014670479B
:1007900040F233439A42A2F2334202DC5242FFF764
:1007A00030BE00F013B80000064C074D06E0E068CC
:1007B00040F0010394E8070098471034AC42F6D3A8
:1007C000FFF7BAFC4427000864270008202A04DB4E
:1007D000203A00FA02F1002070479140C2F1200354
:1007E00020FA03F3194390407047202A06DBCB1709
:1007F000203A41FA02F043EAE07306E041FA02F3DC
:10080000D040C2F12002914008431946704721B1FF
:10081000826842F00102826003E0826822F00102F5
:100820008260704710B504461248844208D1012105
:10083000401500F01FFE0021601500F01BFE17E0C0
:100840000D48844208D10121001500F013FE00215B
:10085000201500F00FFE0BE00848844208D101216A
:10086000C80300F007FE00214FF4004000F002FE34
:1008700010BD00000024014000280140003C014060
:10088000014600208A6802F004020AB1012000E05B
:10089000002070470146C86C80B2704702460020B5
:1008A00013680B400BB1012000E0002070470146A7
:1008B00000208A6802F008020AB1012000E000204E
:1008C0007047000030B502460020002350680F4CEE
:1008D00020400D790C6844EA05242043506090685C
:1008E0000B4C2040D1E902542C434D7944EA450495
:1008F00020439060D06A20F470000C7C641EE4B247
:10090000234340EA0350D06230BD0000FFFEF0FFF9
:10091000FDF7F1FFF0B504460D4600200021092D3A
:1009200011DDE068A5F10A0606EB4607072606FA80
:1009300007F18843A5F10A0606EB460603FA06F11D
:100940000843E0600CE0206905EB4507072606FA3E
:1009500007F1884305EB450603FA06F108432061D9
:10096000072A0FDA606B561E06EB86071F2606FA6B
:1009700007F18843561E06EB860605FA06F1084382
:10098000606322E00D2A0FDA206BD61F06EB860784
:100990001F2606FA07F18843D61F06EB860605FADE
:1009A00006F10843206310E0E06AA2F10D0606EBB1
:1009B00086071F2606FA07F18843A2F10D0606EB0B
:1009C000860605FA06F10843E062F0BD816841F051
:1009D00008018160704721B1826842F4A002826000
:1009E00003E0826822F4A00282607047816841F0CF
:1009F00004018160704700BFFEE7000010B50024CD
:100A00001548006820F470401349086008460068E3
:100A100040F40040086004E0601CC4B2012001F012
:100A200049FD0E48006808B1642CF5DB642C01DB3D
:100A3000012010BD002404E0601CC4B2012001F0BC
:100A400039FD0648006808B9642CF5DB642C01DB2D
:100A50000120EEE70020ECE7001001400C012242EB
:100A600008B50121112000F0F5FC01210C4800F02F
:100A7000AFFB0820ADF8000010208DF80300032024
:100A80008DF802006946074800F016FB082105486A
:100A900000F0E6FB00F062F8FFF7B0FF08BD0000D1
:100AA000000230000010014010B5002404E0601C7A
:100AB000C4B2012001F0FEFC0D48006808B1642CAE
:100AC000F5DB002404E0601CC4B2012001F0F2FC5C
:100AD0000748006808B9642CF5DB282001F0EAFC1F
:100AE0000348006808B1012010BD0020FCE70000A9
:100AF0000C01224270B50024002506E06006040EB9
:100B0000FFF7D2FF0443681CC5B2082DF6DB204670
:100B100070BD7CB505460E4600F020F8FFF76EFF6D
:100B2000C0B9002405E0FFF7E5FF0DF80400601CE4
:100B3000C4B2052CF7DB9DF801009DF8001040EAD7
:100B4000012030809DF803009DF8021040EA01204A
:100B5000288001E001207CBD0020FCE710B50C4896
:100B6000006820F470400A4908600846006840F4B4
:100B700040500860002007490860122001F074FC12
:100B800001200549C1F88C011E2001F093FC10BD25
:100B9000001001408C0122420000224210B50024C6
:100BA0001548006820F00F001349086008460068E7
:100BB00040F00800086004E0601CC4B2012001F0AD
:100BC00079FC0E48006808B1C82CF5DBC82C01DBA5
:100BD000012010BD002404E0601CC4B2012001F01B
:100BE00069FC0648006808B9F02CF5DBF02C01DB45
:100BF0000120EEE70020ECE700100140080122424E
:100C00002DE9F84F00F0CAF800F0A6F8FFF7C6FF8C
:100C1000CC2000F0CFF8BE2000F0CCF800F08AF82D
:100C2000834600F087F80446072C08DDE043C4B291
:100C30006FEA0B0000F0FF0B4FF0000A01E04FF0ED
:100C4000010AA1464FEA09200FFA80F909EB0B00CF
:100C50000FFA80F94846FFF719FB0090FFF743FBB6
:100C600007460022084BFFF79FFA0546FFF71CFBDB
:100C70000FFA80F9BAF1000F02D04846BDE8F88FAC
:100C8000C9F1000000B2F9E70000E43F08B5012116
:100C9000102000F0DFFB0420ADF8000010208DF8DC
:100CA000030003208DF802006946064800F004FAAC
:100CB0000421044800F0D4FA00F04EF8FFF76EFF6C
:100CC00008BD00000010014010B51748006820F072
:100CD0000F00154908600846006840F003000860EE
:100CE000002012490860022001F0E4FB01201049B5
:100CF000C1F888010C48006820F00F000A4908601C
:100D00000846006840F0080008600C2001F0D2FBA3
:100D100006488038006808B1012400E00024322031
:100D200001F0C8FB204610BD00100140880122429E
:100D30000000224270B50026012508E0FFF7C4FF3D
:100D40000446E00140EA6600C6B2681CC5B2082D40
:100D5000F4DD304670BD000010B50D48006820F08D
:100D60000F000B4908600846006840F00300086067
:100D700000200849086040F2EE2001F09BFB0120B2
:100D80000549C1F888010F2001F094FB10BD000057
:100D900000100140880122420000224210B5FFF7F6
:100DA000DBFFFFF7FBFECC2000F004F8442000F04E
:100DB00001F810BD70B504461848006820F00F0017
:100DC000164908600846006840F0030008600125E5
:100DD00020E004F0010664106EB1002010490860A4
:100DE000022001F067FB01200E49C1F888013C2078
:100DF00001F060FB0CE00020094908603C2001F094
:100E000059FB01200749C1F88801022001F052FB7B
:100E1000681CC5B2082DDCDD70BD0000001001406B
:100E200088012242000022427047000008B50121DB
:100E3000042000F00FFB4FF40060ADF8000010201C
:100E40008DF8030003208DF802006946554800F034
:100E500033F900205449086001205449C1F8AC011D
:100E60001E2001F001FBFF215148FFF784F900F03B
:100E7000F9F84FF47A7001F0F7FA4FF47A7001F054
:100E8000F3FA4FF47A7001F0EFFA4FF47A7001F050
:100E9000EBFA4FF47A7001F0E7FA4FF47A7001F050
:100EA000E3FA4FF47A7001F0DFFA4FF47A7001F050
:100EB000DBFA4FF47A7001F0D7FA4FF47A7001F050
:100EC000D3FA4FF47A7001F0CFFA4FF47A7001F050
:100ED000CBFA00F0D5F84FF47A7001F0C5FA4FF470
:100EE0007A7001F0C1FA4FF47A7001F0BDFA4FF454
:100EF0007A7001F0B9FA4FF47A7001F0B5FA4FF454
:100F00007A7001F0B1FA2A4800784F2818D00120F1
:100F10002849086000F0B4F84FF47A7001F0A4FAA0
:100F20004FF47A7001F0A0FA4FF47A7001F09CFA55
:100F30004FF47A7001F098FA00201F49C1F8880137
:100F40004FF47A7001F090FA4FF47A7001F08CFA55
:100F50001AA000F01DFD4FF4FA7001F085FA4FF46D
:100F6000FA7001F081FA19A000F012FD4FF4FA7046
:100F700001F07AFA4FF4FA7001F076FA0C48007832
:100F80003E280ED101200B4908604FF47A7001F021
:100F90006BFA4FF47A7001F067FA00200649C1F845
:100FA000880108BD00080140AC0121420000214237
:100FB00054000020888122420080224241542B4369
:100FC00049504D4F44453D310D0A000041542B43DB
:100FD000495053454E440D0A000000002DE9FF4FD3
:100FE00093B00C4691469A462298FFF77CF9054645
:100FF0000E462198FFF777F9074688462098FFF7B5
:1010000072F9CDE910010A209AFBF0FB99FBF0F090
:101010000F900A2094FBF0F100FB11400E900A2083
:1010200094FBF0F00D901398FFF75DF9CDE9067889
:10103000CDE90856CDE90A01DDE91001CDE9040149
:10104000DDE90D120F98CDE9020BCDE9001204483D
:10105000DDE90A2300F09CFC17B0BDE8F08F00002A
:10106000E026000810B503A000F092FC03A000F0F9
:101070008FFC10BD41542B5253540D000A00000048
:1010800010B502A000F084FC10BD000041542B43B9
:10109000495053544152543D22544350222C223142
:1010A00039322E3136382E34332E313638222C3820
:1010B0003038380D0A0000002DE9F04102460025C5
:1010C0000026002000230024002791F803C00CF024
:1010D0000F0591F803C00CF0100CBCF1000F03D009
:1010E00091F802C04CEA050591F800C0BCF1000F70
:1010F00031D0146800202BE04FF0010C0CFA00F303
:10110000B1F800C00CEA03069E4220D183004FF0E4
:101110000F0C0CFA03F7BC4305FA03FC4CEA040479
:1011200091F803C0BCF1280F06D14FF0010C0CFA66
:1011300000FCC2F814C00AE091F803C0BCF1480FEB
:1011400005D14FF0010C0CFA00FCC2F810C0401C95
:101150000828D1D31460B1F800C0BCF1FF0F34DD12
:10116000546800202EE000F1080C4FF0010808FA46
:101170000CF3B1F800C00CEA03069E4221D18300B3
:101180004FF00F0C0CFA03F7BC4305FA03FC4CEAD2
:10119000040491F803C0BCF1280F05D100F1080C3C
:1011A00008FA0CF8C2F8148091F803C0BCF1480F9B
:1011B00007D100F1080C4FF0010808FA0CF8C2F84A
:1011C0001080401C0828CED35460BDE8F081000098
:1011D000F0B50A46002300240021002500F0004657
:1011E000B6F1004F02D11D4EF16901E01B4E71684E
:1011F000C0F3034583B200F44016B6F5401F08D192
:1012000021F07061154E766826F07066134F7E608F
:1012100012E000F48016B6F5801F06D1032606FA08
:1012200005F4A14341F0706106E0460D360103FA72
:1012300006F6B14341F0706122B1460D360103FA62
:1012400006F6314300F00046B6F1004F02D1034EDE
:10125000F16101E0014E7160F0BD0000000001404D
:101260000161704700BFFEE708B50121202000F0B2
:10127000F1F80420ADF8000010208DF803000320E1
:101280008DF8020069460248FFF716FF08BD00000E
:101290000014014000B587B00121042000F0DAF805
:1012A0000121480200F0D6F82F20ADF818000020E8
:1012B0008DF81B0006A91A48FFF7FEFE1948FFF734
:1012C000B1FA002001908DF808008DF809004FF464
:1012D000602003900020049001208DF8140001A9E3
:1012E0001048FFF7EFFA4FF4404000F0A7F8012153
:1012F0000C48FFF78CFA0B48FFF768FB00BF094862
:10130000FFF7D5FA0028FAD10648FFF76FFB00BFB8
:101310000448FFF7B5FA0028FAD107B000BD000075
:1013200000080140002401402DE9F0470446052350
:10133000012221461248FFF7EDFA01211048FFF77C
:101340004AFB052001F090F800BF02210C48FFF78E
:10135000A5FA0028F9D00A48FFF79CFA8246FEF762
:101360009EFF8146FEF7BFFF07464FF06632054BF2
:10137000FEF71AFF0546FEF7E1FFBDE8F087000023
:101380000024014066664A3F00BFFEE7704708B58B
:101390004FF4A06000F046F825208DF800000120F1
:1013A0008DF801008DF802008DF80300684600F00A
:1013B00001F808BD70B5002100230F22C47804B3E2
:1013C000154C246804F4E064C4F5E064210AC1F11A
:1013D0000403CA40447804FA03F18478144021439A
:1013E00009010E4C0678A155047804F01F0501246C
:1013F000AC4005786D11AD0005F1E025C5F8004160
:1014000009E0047804F01F050124AC40044D06787F
:10141000761145F8264070BD0CED00E000E400E0D8
:1014200080E100E002490143024A11607047000078
:101430000000FA050CED00E07047000001460020B6
:10144000034A506820F44040084350607047000051
:101450000010024029B1064A92690243044B9A6186
:1014600004E0034A92698243014B9A61704700008D
:101470000010024029B1064AD2680243044BDA60E8
:1014800004E0034AD2688243014BDA6070470000EF
:101490000010024030B500210022002400232D4D11
:1014A0006D6805F00C0121B1042905D0082923D16C
:1014B00005E0294D056022E0274D05601FE0254D20
:1014C0006D6805F47012234D6D6805F480340225B3
:1014D00005EB92421CB9214D554305600BE01D4DB3
:1014E0006D6805F400351DB11C4D5543056002E0E3
:1014F000194D5543056002E0174D056000BF00BF60
:10150000144D6D6805F0F0010909154D6B5C056817
:10151000DD4045600F4D6D6805F4E061090A104D2E
:101520006B5C4568DD4085600A4D6D6805F460516F
:10153000C90A0B4D6B5C4568DD40C560054D6D68A3
:1015400005F44041890B074D6B5CC568B5FBF3F5AD
:10155000056130BD0010024000127A0000093D0014
:101560003800002048000020704710B500F002F855
:1015700010BD00000CB500200190009033480068B9
:1015800040F480303149086000BF3048006800F402
:10159000003000900198401C0190009818B9019803
:1015A000B0F5A06FF1D12948006800F4003010B107
:1015B0000120009001E0002000900098012843D114
:1015C0002348006840F01000214908600846006880
:1015D00020F0030008600846006840F00200086040
:1015E0001A484068194948600846406848600846FB
:1015F000406840F4806048600846406820F47C10F1
:1016000048600846406840F4E810486008460068B2
:1016100040F08070086000BF0C48006800F0007067
:101620000028F9D00948406820F0030007494860C5
:101630000846406840F00200486000BF0348406828
:1016400000F00C000828F9D10CBD00000010024089
:1016500000200240042808D14FF0E021096941F040
:1016600004014FF0E022116107E04FF0E021096929
:1016700021F004014FF0E022116170477047000033
:1016800010B51348006840F0010011490860084691
:101690004068104908400E494860084600680E49F5
:1016A00008400B4908600846006820F48020086064
:1016B0000846406820F4FE0048604FF41F00886030
:1016C000FFF753FF4FF000600449086010BD0000B1
:1016D000001002400000FFF8FFFFF6FE08ED00E0FA
:1016E00010B540F22551144800F08BF8C0B11248F3
:1016F00000F042F91149124A1278885408461049FC
:101700000978405C0A2806D101200E4908700020A3
:101710000B49087004E00A480078401C084908702A
:1017200007480078FF2805DD0220064908700020E0
:101730000349087010BD000000380140540000202B
:10174000210000202000002021B1828942F40052B3
:10175000828104E082894DF6FF731A4082817047CE
:1017600010B586B00446012144F20400FFF772FE72
:1017700018208DF817004FF40070ADF81400032006
:101780008DF8160005A91648FFF796FC04208DF881
:1017900017000002ADF8140005A91148FFF78CFCF2
:1017A00001940020ADF810000C20ADF80E000020D0
:1017B000ADF80C00ADF80A00ADF8080001A9094821
:1017C00000F06EF8FFF7E3FD012240F225510548D5
:1017D00000F041F801210348FFF7B6FF06B010BD45
:1017E000000801400038014002460020B1F5007FAA
:1017F00000D100BF13880B400BB1012000E0002096
:10180000704770B50246002400230025002040F6F2
:101810006A16B14200D100BFC1F3421501F01F03A7
:10182000012606FA03F3012D02D19689334006E022
:10183000022D02D1168A334001E0968A33400C1201
:10184000012606FA04F41688344013B10CB10120C5
:1018500000E0002070BDF0B50346002400260025FE
:10186000002040F66A17B94200D100BF1846C1F304
:10187000421401F01F06012707FA06F5012C01D1D9
:101880000C3004E0022C01D1103000E014301AB109
:1018900007682F43076002E00768AF430760F0BDA9
:1018A0002DE9F04786B005460E460024A24600BF4B
:1018B000A1460027B08900B100BF2F462C8A4CF604
:1018C000FF700440F08804432C82AC894EF6F3107C
:1018D0000440B08831890843718908430443AC81CE
:1018E000AC8A4FF6FF400440B0890443AC8201A8A3
:1018F000FFF7D0FD1F48874202D1DDF810A001E0BC
:10190000DDF80CA0A88900F4004040B10AEBCA0041
:1019100000EB0A1031684900B0FBF1F807E00AEB70
:10192000CA0000EB0A1031688900B0FBF1F86420AE
:10193000B8FBF0F004012009642101FB1089A8899B
:1019400000F4004040B1322000EBC900B0FBF1F0E0
:1019500000F00700044308E0322000EB0910642186
:10196000B0FBF1F000F00F0004432C8106B0BDE89D
:10197000F08700000038014001468888C0F3080065
:101980007047C1F308028280704700BFFEE7000085
:101990000FB4054B10B503A9044A029800F0DAF819
:1019A00010BC5DF814FB0000012500085000002069
:1019B00002E008C8121F08C1002AFAD17047704718
:1019C000002001E001C1121F002AFBD17047000076
:1019D0002DE9FF5F82B00021DDE90430020DDDF862
:1019E00040B0034318D044F61050A2F2FF324243F5
:1019F0001514119801281FD0A5EB0B00401C5FEABD
:101A0000000A4FF000064E4FDFF83891B0465046BE
:101A100015D5CAF1000413E0119801244AA3012846
:101A200001D16FEA0B010298119AC0E90031C0E9B7
:101A3000024206B0BDE8F09FCBF10000DFE70446AC
:101A40000021404A491842EB0450CDE9001012E051
:101A5000E00707D032463B4640464946FEF7A4FB26
:101A60008046894632463B4610461946FEF79CFBA7
:101A700006460F466410002CEAD1DDE90401DDE9D9
:101A80000023BAF1000F06DAFEF78EFB42464B4602
:101A9000FEF78AFB05E0FEF7FFFD42464B46FEF7E8
:101AA000FBFD04460E460022284BFEF72FFC03D810
:101AB0004FF0FF30014607E00022254B204631461B
:101AC000FEF743FDFEF757FE102409E0002C0ADB69
:101AD0000A220023FEF764FC039B30321A55641E71
:101AE00050EA0102F2D1641C039AC4F111031444B8
:101AF000119A012A03D0012208430DD10AE00843BC
:101B000004D000204FF0110B119072E7A3EB0B05EE
:101B10006D1E0DE05B4504DD4FF0000205F101058F
:101B200004E003DA4FF00002A5F10105002AECD031
:101B300002981199C0E90231C0E9004579E7000037
:101B4000000014400000F03F300000000000F043AF
:101B50000000E03F2DE9FF4F95B09B4689460646C1
:101B600000250FE2252877D100242746F84A0121D5
:101B7000059400E0044316F8013F203B01FA03F00E
:101B80001042F7D130782A2811D06FF02F03307827
:101B9000A0F13002092A16D8059A44F0020402EB9B
:101BA000820203EB42021044761C0590EFE759F8DD
:101BB000042B0592002A03DA504244F400540590A5
:101BC00044F00204761C30782E2816D116F8010F46
:101BD00044F004042A280DD06FF02F023078A0F1D1
:101BE0003003092B09D807EB870302EB4303C7181F
:101BF000761CF3E759F8047B761C30786C280FD0FC
:101C000006DC4C2817D068280DD06A2814D104E0CF
:101C1000742810D07A280FD10DE044F400140AE0A3
:101C200044F4801401E044F440147278824202D1FA
:101C300004F58014761C761C307866280BD013DCF3
:101C4000582877D009DC002875D04528F6D04628DA
:101C5000F4D047281AD19DE118E0632835D06428D4
:101C600079D0652812D195E1702873D008DC6728F7
:101C7000F1D069286FD06E280DD06F2806D1B5E05D
:101C800073282CD0752875D0782874D05A461799A7
:101C900090476D1C75E1C4F30250022809D0032857
:101CA0000DD0D9F8001004280DD00D6009F10409F9
:101CB00067E1D9F80010EA17C1E90052F6E7D9F850
:101CC00000100D80F2E70D70F0E719F8041B8DF895
:101CD000001000208DF80100EA46012003E059F8C9
:101CE00004AB4FF0FF3061074FF0000102D40DE06C
:101CF00008F101018846B9420FDA8045F8DB1AF88D
:101D000008100029F4D108E008F101018846814259
:101D1000FADB1AF808100029F6D105985B46A0EB0B
:101D2000080721463846179A00F094FA284400EB39
:101D3000080507E04DE029E10DE01AF8010B5A46CD
:101D400017999047B8F10108F7D25B46214638460B
:101D5000179A13E142E00A220092C4F302524FF0B4
:101D6000000A022A08D059F804CB032A4FEAEC7182
:101D70000AD00DE029E02AE009F1070121F007026D
:101D8000F2E802C1914609E00FFA8CFC4FEAEC71CF
:101D9000042A03D14FFA8CFC4FEAEC71002907DAD0
:101DA0000A460021DCF1000C61EB02012D2202E069
:101DB000220504D52B228DF80420012203E0E2073E
:101DC00001D02022F7E7904659E00A2102E01022D4
:101DD0000DE010214FF0000A00910BE010224FF0AF
:101DE000000A44F004040827009203E008224FF0A0
:101DF000000A0092C4F30252022A05D059F804CB1B
:101E00000021032A08D009E009F1070121F00702A7
:101E1000F2E802C1914605E01FFA8CFC042A01D1C8
:101E20000CF0FF0C4FF00008220728D5702806D0D0
:101E3000009B83F0100353EA0A0305D00EE0402212
:101E40008DF80420012208E05CEA010206D030226D
:101E50008DF804208DF8050002229046009B83F047
:101E6000080353EA0A030AD15CEA010201D16207BE
:101E700005D530228DF804204FF001087F1E582828
:101E800004D034A003900EA802900DE036A0F9E72C
:101E900053466046009AFEF783FA84460398825CB4
:101EA0000298401E029002705CEA0100F0D1029894
:101EB00006A9081A00F1200A600702D524F480342C
:101EC00000E00127574502DDA7EB0A0000E00020F3
:101ED00000EB0A01009005984144401A0590E00388
:101EE00006D45B462146179A059800F0B3F90544DD
:101EF000002706E001A85A46C05D179990476D1C5F
:101F00007F1C4745F6DBE0030CD55B462146179A5C
:101F1000059800F09FF9054404E030205A461799CF
:101F200090476D1C0099481E00900029F5DC08E0E0
:101F3000029802995A460078491C029117999047D5
:101F40006D1CBAF10001AAF1010AF1DC65E10000A3
:101F5000092801003031323334353637383961627F
:101F60006364656600000000303132333435363743
:101F700038394142434445460000000000F058F91A
:101F80000544761C307800287FF4ECAD19B0284663
:101F9000BDE8F08F620700D4062709F1070222F09E
:101FA000070CFCE80223E14603F000485FEA080C56
:101FB00002D00FF2702C0DE05FEA045C02D50FF244
:101FC000682C07E05FEAC47C02D00FF2602C01E0CD
:101FD000AFF2700C4FF0FF3823F00043CDF850C043
:101FE00065280CD006DC452809D046281DD0472896
:101FF0003DD13DE0662818D067287ED138E0002129
:10200000112F01DB112000E0781CCDE9000106A9A9
:102010000EA8FFF7DDFCDDE90F010E9A0391002108
:10202000009207F1010A04914DE04FF00040009743
:10203000CDE9011006A90EA8FFF7CAFCDDE90F02E1
:1020400003920E9B11990022DDF80CA000930492DC
:1020500011B9791C00EB010AB7EB0A0004D4C0F1F6
:10206000FF3007F1010A0490AAEB0700019044E059
:10207000012F00DA01270021112F01DD112000E0DE
:102080003846CDE9000106A90EA8FFF7A1FCDDE95D
:102090000F010E9A0391002104910092BA46210784
:1020A0000CD40399514500DA8A46BAF1010F05DDD7
:1020B000009AAAF10101515C302908D0B84202DA35
:1020C00010F1040F06DA0121CDE9011015E0AAF1A3
:1020D0000101E9E7002805DC049901440491AAEB19
:1020E000000102E0411C514500DD8A460499401A76
:1020F000401C01904FF000400290200704D401984A
:10210000504501DBCDF8048000208DF84F00029887
:102110000DF14F07B0F1004F25D02B200E90029803
:102120004FF0020800280CDA404202902D200E9059
:1021300007E00A210298FEF71DF93031029007F8F6
:10214000011DB8F10001A8F10108F2DC0298002895
:10215000EFD1791E0E980870307800F0200040F022
:10216000450007F8020D12A8C01B00F107081498DB
:10217000007800B1012000EB0A01019801EBE07149
:1021800005984144401A401E0590E00306D45B4682
:102190002146179A059800F05DF8054414980078D8
:1021A00018B15A46179990476D1CE00324D55B4639
:1021B0002146179A059800F04DF805441CE0049854
:1021C000002807DBDDE90301884203DD0098405C5D
:1021D000179901E0179930205A469047049805F165
:1021E0000105401C04900198401E019004D12E204E
:1021F0005A46179990476D1CBAF10001AAF1010ADD
:10220000DDDC05E017F8010B5A46179990476D1C65
:10221000B8F10001A8F10108F4DC5B462146179AE9
:102220000598ABE62D0000002B0000002000000008
:102230002DE9F041044600251E461746880404D4C3
:1022400005E039462020B0476D1C641EF9D52846AC
:10225000BDE8F0812DE9F041044600251E46904678
:10226000C80301D5302700E02027880404D505E005
:1022700041463846B0476D1C641EF9D52846BDE876
:10228000F081000010B563E03448007801284ED199
:1022900033A13548FDF77AFF30B901203349086092
:1022A00033A0FFF775FB42E033A12F48FDF76EFF27
:1022B00030B900202D4908602DA0FFF769FB36E0FA
:1022C0002FA12948FDF762FF38B901202749091DD0
:1022D000086027A0FFF75CFB29E02BA12248FDF74F
:1022E00055FF38B900202149091D086020A0FFF7DB
:1022F0004FFB1CE026A11C48FDF748FF38B9002021
:102300001A49083108601AA0FFF742FB0FE022A12A
:102310001548FDF73BFF38B9012014490831086022
:1023200013A0FFF735FB02E01DA0FFF731FB0B48C0
:102330000078022802D11EA0FFF72AFB052000F03A
:1023400093F8002005490870FF210748FDF713FFA7
:1023500002480078002897D110BD0000200000201E
:1023600034310D0A00000000540000209081214209
:102370006F6B0D0A0000000034300D0A00000000F1
:1023800035310D0A0000000035300D0A0000000054
:1023900036300D0A0000000036310D0A0000000042
:1023A000756E6B6F776E20636F6D0D0A0000000015
:1023B000636F6D20746F6F206C6F6E670D0A000085
:1023C00008B501211820FFF745F80320ADF80000FB
:1023D00010208DF8030003208DF8020069460C4898
:1023E000FEF76AFE00200B4908600B49C1F8840122
:1023F0007020ADF8000069460848FEF75DFE002039
:1024000007490860091D0860091D086008BD000033
:10241000001001408001224200002242000C0140D5
:102420009081214210B56FF00400FFF713F90A48BC
:1024300000680A49B0FBF1F00949087008460078C5
:1024400000EB4001C1EBC0104FF6FF7101EAC00084
:102450000449088010BD00002400002000127A000A
:102460004C0000204E0000200146114A12884A43C9
:102470004FF0E0235A6100229A611A46126942F035
:1024800001021A6100BF4FF0E022106900F0010262
:102490001AB100F48032002AF5D04FF0E022126920
:1024A00022F001024FF0E0231A6100229A61704786
:1024B0004E0000200146114A12784A434FF0E023B3
:1024C0005A6100229A611A46126942F001021A61A9
:1024D00000BF4FF0E022106900F001021AB100F4D1
:1024E0008032002AF5D04FF0E022126922F001027A
:1024F0004FF0E0231A6100229A6170474C000020DF
:1025000070B504460D46E1B20548FFF73AFA00BF40
:1025100080210348FFF768F90028F9D0204670BDF4
:10252000003801400EB54FF4A060FEF77BFFFFF7C7
:1025300079FFFEF799FEFFF743FF4FF4E130FFF715
:102540000FF9FEF7A3FBFEF7A5FE03E04CA0FFF793
:102550001FFA03E0FEF79AFB0028F7D100BF4FF403
:102560007A70FFF781FF03E04AA0FFF711FA03E05A
:10257000FEF776FA0028F7D100BFFEF757FC0020DF
:1025800049490870FF214948FDF7F5FD77E0FFF75D
:1025900079FEFEF735FB464908800846B0F9000091
:1025A0004449086044494548FEF7B3FA0520FEF760
:1025B000BBFE434908600A20FFF756FF0320FEF7E1
:1025C000B3FE404908600A20FFF74EFF0220FEF7E5
:1025D000ABFE3D4908600A20FFF746FF0120FEF7E9
:1025E000A3FE3A4908600A20FFF73EFF0020FEF7ED
:1025F0009BFE374908604FF47A70FFF735FF4FF4C0
:102600007A70FFF731FF31480068FDF76CFE044631
:10261000304A314BFDF77AFE03D201202F49086082
:1026200002E000202D49086025480068FDF75BFEA8
:102630000446284A284BFDF769FE04D201202749A9
:10264000091F086003E000202449091F08604FF4B7
:102650007A70FFF709FF1C4801681A4800681C4A95
:102660001268CDE9002002911248008882B2124817
:1026700003881248018815480068FEF7AFFC86E71A
:1026800077617465725F746D7020496E697420653E
:1026900072720000746D702668756D20496E6974E1
:1026A000206572720000000020000020540000200D
:1026B000000000201C000020040000200200002078
:1026C000180000200C00002010000020080000204E
:1026D000140000209A999999999901408401224205
:1026E0007B227776223A22252E3266222C22746DA6
:1026F00070223A22253032642E2564222C2277540F
:10270000223A2225303264222C2268756D223A2228
:102710002564222C2264697248223A22252E3266D0
:10272000222C22656E67223A22252E3266222C2226
:1027300063686F6E67223A22252E3166227D0D0A6C
:102740000000000064270008000000205400000082
:10275000B0190008B8270008540000200405000044
:10276000C019000800000000000000000000000088
:102770000000000000000000000000000000000059
:10278000000000000000000000A24A040000000059
:102790000000000001020304060708090000000011
:1027A00001020304010203040607080902040608E3
:0827B000000000000000000021
:0400000508000131BD
:00000001FF
